S014000050726F6A656B745F524649442E73726563AD
S11300000C942A000C9447000C9447000C9447006D
S11300100C9447000C9447000C9447000C94470040
S11300200C9447000C9447000C9447000C94470030
S11300300C9447000C9447000C9447000C94470020
S11300400C9447000C9447000C9447000C94470010
S11300500C94470011241FBECFE5D4E0DEBFCDBF12
S113006011E0A0E6B0E0E2E6FEE002C005900D92E9
S1130070AA3CB107D9F722E0AAECB1E001C01D9275
S1130080A933B207E1F70E94F1010C942F070C94F5
S11300900000979A00C097980895CF93DF93D82FC4
S11300A0662311F0959A01C09598969881B38F6054
S11300B081BBC2B3C07F8D2F82958F708C2B82BB86
S11300C00E944900DF70DC2BD2BB0E944900CF6044
S11300D0C2BBDF91CF910895882311F0959A01C096
S11300E09598969A81B3807F81BB979A00C090B30C
S11300F0979800C0979A00C020B32F70892F8295DB
S1130100807F9798822B089580E00E946C0088235A
S1130110DCF383E090E00197F1F780E00E946C004B
S11301200895CF93C82F0E94840060E08C2F0E9412
S11301304D00CF910895611104C080580E94910030
S1130140089580540E949100089581E00E949100D6
S11301500895CF93C82F0E948400CA3049F4803494
S113016010F080E001C080E480580E94910004C037
S113017061E08C2F0E944D00CF910895CF93DF93BF
S1130180EC012196FC018081882329F00E94A900BA
S113019089918111FBCFDF91CF9108951F93CF9364
S11301A0DF93182F81B38F6081BB8D9A8E9A8F9ABB
S11301B080E393E70197F1F7919A909A0E9449009E
S11301C080EF93E20197F1F70E944900C5E7D0E080
S11301D0CE010197F1F70E944900CE010197F1F792
S11301E090980E9449002197F1F788E20E949100BB
S11301F088E00E9491000E94A50086E00E94910080
S1130200812F0E949100DF91CF911F9108954AE0C0
S113021050E060E070E088ED91E00E9408074AE059
S113022050E06AE070E08EEE91E00E9408074AE038
S113023050E064E170E083EE91E00E9408070895C5
S1130240CF93DF93EC0181309105D9F0843091058F
S1130250A9F420C04AE050E06AE070E080E690E053
S11302600E94180723972297F0F44AE050E064E1D3
S113027070E080E690E00E94180715C0029791F79D
S1130280E9CF4AE050E060E070E080E690E00E9450
S11302901807E8CF4AE050E060E070E080E690E0C4
S11302A00E941807D7CFDF91CF910895813091052F
S11302B049F44AE050E060E070E088ED91E00E948B
S11302C0180708958230910549F44AE050E06AE045
S11302D070E08EEE91E00E9418070895039741F4B0
S11302E04AE050E064E170E083EE91E00E94180778
S11302F008958130910571F460E670E088ED91E035
S11303000E94C30631E020E0892B09F030E0832FFE
S1130310922F08958230910571F460E670E08EEEBC
S113032091E00E94C30631E020E0892B09F030E01F
S1130330832F922F0895039771F460E670E083EEA3
S113034091E00E94C30631E020E0892B09F030E0FF
S1130350832F922F089580E090E00895CF93DF9348
S1130360C1E0D0E0CE010E947901009731F02196DE
S1130370C430D105B9F781E090E0DF91CF910895C1
S11303800E94A5008BE690E00E94BE0061E080E040
S11303900E949B0088E790E00E94BE001092D10169
S11303A01092D0011092CD011092CC011092CF0185
S11303B01092CE011092CB011092CA0108958C9A2A
S11303C017BA8FE088BB81E28FBD8AE08EBD80E6DC
S11303D090E099BD88BD8CE00E94CE000E94A500EB
S11303E00895CF93DF93CDB7DEB7A6970FB6F894F1
S11303F0DEBF0FBECDBF2FEF8FE191E021508040D3
S11304009040E1F700C000000E94DF010E94070154
S113041081E090E00E9479019093D7018093D60106
S113042082E090E00E9479019093D5018093D401F9
S113043083E090E00E9479019093D3018093D201EC
S113044089E890E00E94BE000E94AE06EFEFFFE74D
S113045026E1E150F0402040E1F700C000000E9496
S1130460A5000E94ED0487E30E94DD04823949F46B
S113047085E990E00E94BE0084EA90E00E94BE00FC
S113048010C08059823048F48DEA90E00E94BE008A
S113049084EA90E00E94BE0004C08CEB90E00E94CD
S11304A0BE0082E00E94DD04682F606282E00E9448
S11304B0D00483E00E94DD04682F606883E00E941A
S11304C0D0048FEF9FEBE1E281509040E040E1F7F0
S11304D000C000000E94A5000E94C00101E010E0DD
S11304E06E01F6E0CF0ED11C0E94C001B0990EC07F
S11304F01093D1010093D0011092CD011092CC0140
S11305001092CF011092CE010E94A500B1990EC0A5
S11305101092D1011092D0011093CD010093CC011F
S11305201092CF011092CE010E94A500B2990EC084
S11305301092D1011092D0011092CD011092CC01F1
S11305401093CF010093CE010E94A500B39912C06D
S11305501092D1011092D0011092CD011092CC01D1
S11305601092CF011092CE011093CB010093CA01D7
S11305700E94A5008091D0019091D101892B09F4AA
S113058078C00E94AE01892B71F08CEC90E00E943F
S1130590BE002FEF8FE796E1215080409040E1F7B5
S11305A000C0000066C08DED90E00E94BE00BE0158
S11305B06F5F7F4F82E50E944206813049F5CE018C
S11305C001960E9476068130D9F41C8EFE01319684
S11305D07F01F70181917F0140E1BE016F5E7F4F92
S11305E090E00E94D306BE016F5E7F4FCE014C9611
S11305F00E94B806CE14DF0461F70E94A5000BC068
S113060087EE90E00E94BE000115110581F603C03B
S11306100115110561F6BE01645E7F4F88ED91E01E
S11306200E94C306892B29F48DEE90E00E94BE003F
S113063020C0BE01645E7F4F8EEE91E00E94C3062F
S1130640892B29F488EF90E00E94BE0012C0BE01FD
S1130650645E7F4F83EE91E00E94C306892B29F4E8
S113066083E091E00E94BE0004C08EE091E00E940D
S1130670BE008091CE019091CF01892B09F495C0E1
S11306800E94AE01892B71F08CEC90E00E94BE00B8
S1130690FFEF2FE786E1F15020408040E1F700C0F2
S11306A0000083C08CE191E00E94BE00BE016F5F38
S11306B07F4F82E50E944206813049F5CE010196C2
S11306C00E9476068130D9F41C8EFE0131967F019A
S11306D0F70181917F0140E1BE016F5E7F4F90E0A1
S11306E00E94D306BE016F5E7F4FCE014C960E94DE
S11306F0B806CE14DF0461F70E94A5000BC087EE94
S113070090E00E94BE000115110581F603C0011599
S1130710110561F6BE01645E7F4F88ED91E00E9491
S1130720C306892B71F4C8010E94200160E670E0C1
S113073088ED91E00E94CC0688E291E00E94BE0020
S113074034C0BE01645E7F4F8EEE91E00E94C3060A
S1130750892B79F482E090E00E94200160E670E049
S11307608EEE91E00E94CC0688E391E00E94BE00E8
S11307701CC0BE01645E7F4F83EE91E00E94C306FD
S1130780892B79F483E090E00E94200160E670E018
S113079083EE91E00E94CC0688E491E00E94BE00C2
S11307A004C08EE091E00E94BE008091CC01909143
S11307B0CD01892B09F4BDC088E591E00E94BE00FB
S11307C0BE016F5F7F4F82E50E9442068130B1F522
S11307D0CE0101960E9476068130D9F41C8ECE019A
S11307E001967C01F70181917F0140E1BE016F5EBA
S11307F07F4F90E00E94D306BE016F5E7F4FCE0113
S11308004C960E94B806EC14FD0461F70E94A50002
S113081019C00E94A50087EE90E00E94BE00FFEF81
S11308202FE786E1F15020408040E1F700C000004E
S11308300E94A5000115110519F604C00115110542
S113084009F0BECFBE01645E7F4F88ED91E00E9447
S1130850C306892B29F481E691E00E94BE0060C0A2
S1130860BE01645E7F4F8EEE91E00E94C306892B29
S113087029F480E791E00E94BE0052C0BE01645E8C
S11308807F4F83EE91E00E94C306892B29F48FE702
S113089091E00E94BE0044C0C8010E947901892BE6
S11308A079F0BE01645E7F4F88ED91E00E94CC0632
S11308B0C8010E9456018EE891E00E94BE0030C03B
S11308C082E090E00E947901892B81F0BE01645E90
S11308D07F4F8EEE91E00E94CC0682E090E00E9471
S11308E056018CE991E00E94BE001AC083E090E0BA
S11308F00E947901892B81F0BE01645E7F4F83EEF3
S113090091E00E94CC0683E090E00E9456018AEABE
S113091091E00E94BE0004C088EB91E00E94BE00FA
S11309209FEFEFE7F6E19150E040F040E1F700C0BF
S113093000008091CA019091CB01892B39F184E0A8
S113094090E00E94200160E670E088ED91E00E9452
S1130950CC0660E670E08EEE91E00E94CC0660E684
S113096070E083EE91E00E94CC0682EC91E00E945C
S1130970BE001092CB011092CA012FEF8FE796E1CF
S1130980215080409040E1F700C00000EFEFFFE706
S113099026E1E150F0402040E1F700C00000A4CD82
S11309A0CF93C62FC498880F8E770E94B3068C2FDE
S11309B00E94B306C49ACF910895C498880F8E7785
S11309C080680E94B30680E00E94B306C49A08952A
S11309D06FE081E00E94D00408950E94E8046DE86D
S11309E08AE20E94D0046EE38BE20E94D0046EE19E
S11309F08CE20E94D00460E08DE20E94D00460E4A6
S1130A0085E10E94D0046DE381E10E94D00484E179
S1130A100E94DD04982F937029F4682F636084E1A9
S1130A200E94D00408953F924F925F926F927F92FA
S1130A308F929F92AF92BF92CF92DF92EF92FF92EA
S1130A400F931F93CF93DF93982EF62EE72E442E09
S1130A50822E332E58018CE0981609F4C9C0EEE0BA
S1130A609E1203C010E102E102C010E000E084E045
S1130A700E94DD04682F6F7784E00E94D0048AE02E
S1130A800E94DD04682F60688AE00E94D00460E060
S1130A9081E00E94D004512C612C712C411451042A
S1130AA06104710419F415C010E307E7CF2DDE2D9E
S1130AB0C12CD12C7601699189E00E94D004FFEF0A
S1130AC0CF1ADF0AEF0AFF0AC414D504E604F704B8
S1130AD090F3692D81E00E94D0048CE0981208C044
S1130AE08DE00E94DD04682F60688DE00E94D004D0
S1130AF084E00E94DD04F82EC0E0D0E011600AC05A
S1130B0084E00E94DD04F82E2196CF3CE7E0DE0766
S1130B1009F48CC0812F8F2199F392C00170F022C7
S1130B2011F0C2E001C0C1E0FCE09F1298C08AE06D
S1130B300E94DD04482E8CE00E94DD04282F2770DB
S1130B40A9F0842D90E00197880F991F880F991FB1
S1130B50880F991F820F911D092E000CAA0BBB0B45
S1130B60F50180839183A283B38311C0842D90E027
S1130B70880F991F880F991F880F991F092E000C41
S1130B80AA0BBB0BF50180839183A283B38344201A
S1130B9071F0842D813108F080E1482E512C612CB4
S1130BA0712C411451046104710429F458C0412C7E
S1130BB0512C32014394082D132DC12CD12C7601D4
S1130BC089E00E94DD04F80181938F01FFEFCF1AC1
S1130BD0DF0AEF0AFF0AC414D504E604F70480F31D
S1130BE03EC06CE081E00E94D00410E307E778CFB8
S1130BF084E00E94DD04682F6F7784E00E94D004B3
S1130C008AE00E94DD04682F60688AE00E94D004B4
S1130C1060E081E00E94D004512C612C712C4114BD
S1130C2051046104710409F03FCFDBCF8DE00E94D1
S1130C30DD04682F6F778DE00E94D004C3E00FC0FD
S1130C408DE00E94DD04682F6F778DE00E94D00450
S1130C5086E00E94DD048B7109F460CFC3E08C2F21
S1130C60DF91CF911F910F91FF90EF90DF90CF9084
S1130C70BF90AF909F908F907F906F905F904F90B8
S1130C803F900895EF92FF920F931F93CF93DF93BA
S1130C9000D000D0CDB7DEB7182F7B0167E08DE020
S1130CA00E94D004F70110838E010F5F1F4F97013C
S1130CB041E0B7018CE00E941305813059F4498169
S1130CC05A816B817C81403151056105710519F0B0
S1130CD083E001C083E00F900F900F900F90DF919D
S1130CE0CF911F910F91FF90EF900895EF92FF9293
S1130CF00F931F93CF93DF9300D000D0CDB7DEB70F
S1130D007C0160E08DE00E94D00483E9F7018083D8
S1130D1080E281838E010F5F1F4F970142E0B7018C
S1130D208CE00E941305813071F4F701A7014C5F38
S1130D305F4F90E0219192274E175F07D9F7F70193
S1130D402481921383E00F900F900F900F90DF9106
S1130D50CF911F910F91FF90EF90089580EB87BB87
S1130D6081E58DB908958FB9779BFECF8FB1089532
S1130D70FB01DC010D900020E9F7119701900D9221
S1130D800020E1F70895FB01DC018D9101908019A9
S1130D900110D9F3990B0895FB01DC0101900D9228
S1130DA00020E1F70895BB274A3031F4992322F457
S1130DB0BDE2909581959F4F0C94DF06BB27FB0104
S1130DC05527AA27880F991FAA1FA41710F0A41B40
S1130DD083955051B9F7A05DAA3308F0A95DA1939A
S1130DE0009779F7B111B1931192CB010C94F806E5
S1130DF0DC01FC01672F71917723E1F7329704C07E
S1130E007C916D9370836291AE17BF07C8F3089508
S1130E10DC01CB01FC01E199FECF06C0FFBBEEBBB8
S1130E20E09A31960DB20D9241505040B8F70895B2
S1130E30DC01CB0103C02D910E9423074150504097
S1130E40D0F70895262FE199FECF9FBB8EBB2DBB13
S1130E500FB6F894E29AE19A0FBE01960895F894B9
S1050E60FFCFBE
S1130E623030303030303030303000312D53636127
S1130E726E20322D41646400332D44656C657465C3
S1130E8220342D466C7573680052464944205265DD
S1130E9261646572004D49464152452052433532E0
S1130EA2327632004465746563746564004D494664
S1130EB24152452052433532327631004E6F207210
S1130EC2656164657220666F756E64004E6F20738F
S1130ED2746F7265642063617264732E005363617C
S1130EE26E2063617264004572726F7200436172B4
S1130EF2642031204F4B2E00436172642032204F14
S1130F024B2E00436172642033204F4B2E00556EEA
S1130F126B6E6F776E20636172642E0044656C653C
S1130F2274652063617264004361726420312064D9
S1130F32656C657465642E004361726420322064BA
S1130F42656C657465642E004361726420332064A9
S1130F52656C657465642E00416464206361726427
S1130F6200436172642031206578697374732E00C2
S1130F72436172642032206578697374732E00436E
S1130F826172642033206578697374732E0043613F
S1130F92726420312073617665642E004361726449
S1130FA220322073617665642E00436172642033BB
S1130FB22073617665642E004E6F207370616365E1
S10D0FC22E00466C75736865640028
S9030000FC
